:100000000C9434000C9451000C9451000C94510049
:100010000C9451000C9451000C9451000C9451001C
:100020000C9451000C9451000C9451000C9451000C
:100030000C9451000C9451000C9451000C945100FC
:100040000C9451000C9451000C9451000C945100EC
:100050000C9451000C9451000C9451000C945100DC
:100060000C9451000C94510011241FBECFEFD8E026
:10007000DEBFCDBF11E0A0E0B1E0EAE4F3E002C0F2
:1000800005900D92AC3CB107D9F721E0ACECB1E0A2
:1000900001C01D92AD3CB207E1F70E94C5000C946F
:1000A000A3010C940000CF93DF93CDB7DEB7619727
:1000B0000FB6F894DEBF0FBECDBFE5E0F1E08FE4F0
:1000C0005A9A8093C6008091C00086FFFCCF5A9850
:1000D0008091C00080648093C00081918111F0CF35
:1000E0009091660081E1EEE0F1E0DE011196019071
:1000F0000D928A95E1F7E92FF0E0F595E795F595F2
:10010000E795F595E795F595E79521E030E02C0F1B
:100110003D1FE20FF31F80815A9A8093C6008091A1
:10012000C00086FFFCCF5A988091C0008064809305
:10013000C0009F70E1E0F0E0EC0FFD1FE90FF11D42
:1001400080815A9A8093C6008091C00086FFFCCFC0
:100150005A988091C00080648093C0005A9A8AE0C7
:100160008093C6008091C00086FFFCCF5A98809192
:10017000C00080648093C00061960FB6F894DEBF23
:100180000FBECDBFDF91CF910895CF93DF93CDB751
:10019000DEB761970FB6F894DEBF0FBECDBF04B6D1
:1001A00003FC0E94003F529A82E08093C0001092AC
:1001B000C50080E18093C40088E18093C100E0E243
:1001C000F1E085E55A9A8093C6008091C00086FFD1
:1001D000FCCF5A988091C00080648093C0008191C8
:1001E0008111F0CF01E11AE08091C00087FFFCCFC0
:1001F0008091C00087FFFCCF8091C600E091CC01C8
:1002000091E09E0F9093CC01F0E0E050FF4F2081F1
:10021000821709F474C01092CC018D3209F479C0B0
:1002200044F08F3309F47BC08F36F1F60E945300FF
:10023000DBCF8B32C9F6809166008F5F80936600BA
:10024000E5E0F1E08FE45A9A8093C6008091C00007
:1002500086FFFCCF5A988091C00080648093C000D4
:1002600081918111F0CF90916600EEE0F1E0DE0126
:100270001196802F01900D928A95E1F7E92FF0E019
:10028000F595E795F595E795F595E795F595E79556
:1002900021E030E02C0F3D1FE20FF31F80815A9ABE
:1002A0008093C6008091C00086FFFCCF5A98809151
:1002B000C00080648093C0009F70E1E0F0E0EC0F2C
:1002C000FD1FE90FF11D80815A9A8093C60080912D
:1002D000C00086FFFCCF5A988091C0008064809354
:1002E000C0005A9A1093C6008091C00086FFFCCFD0
:1002F0005A988091C00080648093C00075CF94307C
:1003000009F08BCF88E18093600088E080936000E3
:10031000FFCF8091660081508093660087CFE0E236
:10032000F1E085E55A9A8093C6008091C00086FF6F
:10033000FCCF5A988091C00080648093C000819166
:0A0340008111F0CF51CFF894FFCFE8
:10034A00747E7A334F534343414C3D307800303109
:10035A00323334353637383961626364656600553D
:10036A00736520617672323332636C69656E74200C
:10037A00746F20666C61736820612070726F677297
:10038A00616D20696E746F207468697320656D7081
:10039A00747920636869702E0A47657420746865E9
:1003AA0020636C69656E7420617420687474703A95
:1003BA002F2F746563686E696B612E6A756E696F3B
:1003CA00722E637A2F747261632F77696B692F615A
:1003DA007672323332636C69656E742E0A43616CCD
:1003EA00696272617465206F7363696C6C61746FA2
:1003FA0072207573696E6720276F272C20272B2799
:0C040A002C20616E6420272D270A0000C2
:107E0000332714B734BF28E120936000309360001B
:107E100013FD09C011FD07C0299A3A95F1F7199B86
:107E200002C00C9400002FEF2DBF28E02EBF529A05
:107E300022E02093C0003093C50020E12093C400CD
:107E400028E12093C1007AD05437E9F777D05E3724
:107E5000D1F774D05A37B9F771D05333A1F704E191
:107E600074D06CD0503169F0513161F15231B9F1B7
:107E7000533131F0543119F0543741F3E4CF49C054
:107E800037C05CD0F52F5AD0E52FE07860E456D0AB
:107E9000052E54D0152E01E007BFE895E395E39534
:107EA0006A95A9F7E05803E007BFE89507D005E019
:107EB00007BFE89503D004E148D0D3CF77B770FD72
:107EC000FDCF089501E107BFE8953093C1003093DD
:107ED000C0003093C5003093C4000C9400000DE640
:107EE00034D003E332D002E330D008E32ED0B9CF50
:107EF00025D0052E23D0152E21D0252EF999FECF81
:107F000002BC11BCF89A00B520D013942A94B1F7A2
:107F1000A8CF14D0052E12D0152E10D0252E0ED09D
:107F2000352EF999FECF02BC11BC30BCFA9AF99AF1
:107F300013942A94A1F704E108D093CF5091C00084
:107F400057FFFCCF5091C60008955A9A0093C6007F
:107F50008091C00086FBE6F75A988091C00080644B
:067F60008093C0000895AB
:00000001FF
